S01B000046696E616C50726F6A6563745F4D61737465722E737265637D
S11300000C942A000C943F000C943F000C943F0085
S11300100C943F000C943F000C943F000C943F0060
S11300200C943F000C943F000C943F000C943F0050
S11300300C943F000C943F000C943F000C943F0040
S11300400C943F000C943F000C943F000C943F0030
S11300500C943F0011241FBECFE5D8E0DEBFCDBF16
S113006010E0A0E6B0E0EAECF8E002C005900D92E2
S1130070AE3BB107D9F70E9460020C9463040C9460
S1130080000080E487B987E886B90895982F9770AF
S1130090869586958695813021F130F08230F1F194
S11300A0833009F458C00895613069F44BB321E0FA
S11300B030E0B90102C0660F771F9A95E2F7CB01D1
S11300C0842B8BBB08954BB321E030E0B90102C00F
S11300D0660F771F9A95E2F7CB01809584238BBB3B
S11300E00895613069F448B321E030E0B90102C0F9
S11300F0660F771F9A95E2F7CB01842B88BB08958E
S113010048B321E030E0B90102C0660F771F9A9529
S1130110E2F7CB018095842388BB0895613069F4AC
S113012045B321E030E0B90102C0660F771F9A950C
S1130130E2F7CB01842B85BB089545B321E030E081
S1130140B90102C0660F771F9A95E2F7CB0180953B
S1130150842385BB0895613069F442B321E030E023
S1130160B90102C0660F771F9A95E2F7CB01842B81
S113017082BB089542B321E030E0B90102C0660FAA
S1130180771F9A95E2F7CB018095842382BB08956B
S1130190CF93DF931F92CDB7DEB76983813049F0E7
S11301A028F0823049F0833051F00BC089818BBB39
S11301B008C0898188BB05C0898185BB02C089814B
S11301C082BB0F90DF91CF910895CF93DF931F925D
S11301D0CDB7DEB7198219828981803208F098C0C0
S11301E021E030E08981998197708695869586957E
S11301F0813041F138F0823009F444C0833009F48D
S113020061C07FC0E981F0E0EE0FFF1FE05AFF4FAD
S11302108081813059F44AB3B90102C0660F771F57
S11302209A95E2F7CB01842B8ABB6BC04AB3B90120
S113023002C0660F771F9A95E2F7CB01809584235D
S11302408ABB5FC0E981F0E0EE0FFF1FE05AFF4F69
S11302508081813059F447B3B90102C0660F771F1A
S11302609A95E2F7CB01842B87BB4BC047B3B90106
S113027002C0660F771F9A95E2F7CB01809584231D
S113028087BB3FC0E981F0E0EE0FFF1FE05AFF4F4C
S11302908081813059F444B3B90102C0660F771FDD
S11302A09A95E2F7CB01842B84BB2BC044B3B901EC
S11302B002C0660F771F9A95E2F7CB0180958423DD
S11302C084BB1FC0E981F0E0EE0FFF1FE05AFF4F2F
S11302D08081813059F441B3B90102C0660F771FA0
S11302E09A95E2F7CB01842B81BB0BC041B3B901D2
S11302F002C0660F771F9A95E2F7CB01809584239D
S113030081BB89818F5F89838981803208F46ACFB8
S11303100F90DF91CF910895CF93DF9300D0CDB7A5
S1130320DEB78A838A81807F8983698180E00E9425
S1130330C80060E089E00E94460060E08BE00E9413
S113034046008FE39FE10197F1F700C0000061E0F0
S11303508BE00E9446008FE39FE10197F1F700C014
S113036000008A818295807F8983698180E00E9470
S1130370C80060E089E00E94460060E08BE00E94D3
S113038046008FE39FE10197F1F700C0000061E0B0
S11303908BE00E9446008FE39FE10197F1F700C0D4
S11303A000000F900F90DF91CF91089581E00E949B
S11303B08C01089560E08AE00E9446002FEF89EFE7
S11303C090E0215080409040E1F700C0000083E3BA
S11303D00E948C018FE39FE10197F1F700C00000B8
S11303E082E30E948C0188E20E948C0186E00E94D4
S11303F08C018CE00E948C0181E00E948C018FE3CF
S11304009FE10197F1F700C000000895CF93DF93B7
S113041000D0CDB7DEB78A838A81807F89836981E2
S113042080E00E94C80061E089E00E94460060E02C
S11304308BE00E9446008FE39FE10197F1F700C033
S1130440000061E08BE00E9446008FE39FE101978A
S1130450F1F700C000008A818295807F89836981D9
S113046080E00E94C80061E089E00E94460060E0EC
S11304708BE00E9446008FE39FE10197F1F700C0F3
S1130480000061E08BE00E9446008FE39FE101974A
S1130490F1F700C000000F900F90DF91CF91089505
S11304A0CF93DF93FC012081222339F0EC01899161
S11304B00E94060288818111FACFDF91CF910895BD
S11304C0CF93DF93CDB7DEB72F970FB6F894DEBF87
S11304D00FBECDBF0E94F3020E94E5000E94DA0124
S11304E00E944100198280E18A83CE0101960E9414
S11304F0BD02C4981E868FB18F870E94FB028B8336
S11305008B818237B1F50E94E4028038A1F38FB168
S11305108F878F85882331F16F8570E080E090E0CC
S11305200E94A20327ED33EA40E050E40E94FF0258
S11305300E9471036E878E854AE0BE016C5F7F4F17
S113054090E00E942E040E94D60180EA90E00E946E
S11305505002CE0104960E94500289EA90E00E9463
S11305605002C9CF0E94D6018CEA90E00E9450024A
S1130570C2CF8B810E94D602BECFFC0120812223F0
S113058019F0213041F00BC0BC9ABD9ABF9ABE98B5
S1130590C49A6C9A04C0BC98BD98BF98BE9AFC01DA
S11305A08181803109F4689A6E9A0895CF93DF931C
S11305B01F92CDB7DEB7898389818FB9779BFECF30
S11305C00F90DF91CF910895CF93DF931F92CDB712
S11305D0DEB7898389818FB9779BFECF8FB10F9066
S11305E0DF91CF91089588E18AB986E880BD87E6D6
S11305F089B910BC08955F9BFECF8CB108950E9409
S113060013030C94F4030E94ED0358F00E94E603D4
S113061040F029F45F3F29F00C94DD0351110C9450
S113062028040C94E3030E94050468F39923B1F3AE
S1130630552391F3951B550BBB27AA276217730704
S1130640840738F09F5F5F4F220F331F441FAA1F98
S1130650A9F335D00E2E3AF0E0E832D09150504054
S1130660E695001CCAF72BD0FE2F29D0660F771F02
S1130670881FBB1F261737074807AB07B0E809F0E8
S1130680BB0B802DBF01FF2793585F4F3AF09E3F6D
S1130690510578F00C94DD030C9428045F3FE4F3D7
S11306A0983ED4F3869577956795B795F7959F5FB0
S11306B0C9F7880F911D9695879597F90895E1E0FC
S11306C0660F771F881FBB1F621773078407BA075B
S11306D020F0621B730B840BBA0BEE1F88F7E095B6
S11306E008950E940D0488F09F5798F0B92F992718
S11306F0B751B0F0E1F0660F771F881F991F1AF009
S1130700BA95C9F714C0B13091F00E942704B1E042
S113071008950C942704672F782F8827B85F39F041
S1130720B93FCCF3869577956795B395D9F73EF4A1
S113073090958095709561957F4F8F4F9F4F089549
S1130740E89409C097FB3EF4909580957095619567
S11307507F4F8F4F9F4F9923A9F0F92F96E9BB271D
S11307609395F695879577956795B795F111F8CF99
S1130770FAF4BB0F11F460FF1BC06F5F7F4F8F4F04
S11307809F4F16C0882311F096E911C0772321F0FA
S11307909EE8872F762F05C0662371F096E8862F92
S11307A070E060E02AF09A95660F771F881FDAF7E9
S11307B0880F9695879597F9089597F99F6780E82C
S11307C070E060E008959FEF80EC089500240A949F
S11307D01616170618060906089500240A94121618
S11307E01306140605060895092E0394000C11F44B
S11307F0882352F0BB0F40F4BF2B11F460FF04C0F8
S11308006F5F7F4F8F4F9F4F089557FD9058440F50
S1130810551F59F05F3F71F04795880F97FB991F5B
S113082061F09F3F79F08795089512161306140618
S1130830551FF2CF4695F1DF08C0161617061806A5
S1130840991FF1CF86957105610508940895E89480
S1130850BB2766277727CB0197F90895BB274A3032
S113086031F4992322F4BDE2909581959F4F0C9425
S11308703A04BB27FB015527AA27880F991FAA1FF3
S1130880A41710F0A41B83955051B9F7A05DAA33A7
S113089008F0A95DA193009779F7B111B193119272
S11308A0CB010C945304DC01FC01672F7191772375
S11308B0E1F7329704C07C916D9370836291AE1717
S10D08C0BF07C8F30895F894FFCFB2
S11308CA000101010101010101010101010101010B
S11308DA01010101010101010101010100010101FB
S11308EA01010101010101010101010101010101EA
S11308FA01010101000101010101010101010101DB
S113090A2054454D50203D2000204300205052459C
S111091A535320414741494E20504C5A21006E
S9030000FC
