:100000000C942A000C943F000C943F000C943F0089
:100010000C943F000C943F000C943F000C943F0064
:100020000C943F000C943F000C943F000C943F0054
:100030000C943F000C943F000C943F000C943F0044
:100040000C943F000C943F000C943F000C943F0034
:100050000C943F0011241FBECFE5D8E0DEBFCDBF1A
:1000600011E0A0E6B0E0EAE7F7E002C005900D92EB
:10007000AE30B107D9F70E946B020C94BB030C940D
:10008000000080E487B987E886B9089597B1987F22
:100090008770892B87B9369A3699FECF84B195B18E
:1000A0000895982F9770869586958695813021F1D1
:1000B00030F08230F1F1833009F458C00895613096
:1000C00069F44BB321E030E0B90102C0660F771F3D
:1000D0009A95E2F7CB01842B8BBB08954BB321E0BB
:1000E00030E0B90102C0660F771F9A95E2F7CB01A5
:1000F000809584238BBB0895613069F448B321E077
:1001000030E0B90102C0660F771F9A95E2F7CB0184
:10011000842B88BB089548B321E030E0B90102C0C8
:10012000660F771F9A95E2F7CB018095842388BBF1
:100130000895613069F445B321E030E0B90102C0AF
:10014000660F771F9A95E2F7CB01842B85BB089544
:1001500045B321E030E0B90102C0660F771F9A95E0
:10016000E2F7CB018095842385BB0895613069F463
:1001700042B321E030E0B90102C0660F771F9A95C3
:10018000E2F7CB01842B82BB089542B321E030E03B
:10019000B90102C0660F771F9A95E2F7CB018095EF
:1001A000842382BB0895CF93DF931F92CDB7DEB730
:1001B0006983813049F028F0823049F0833051F072
:1001C0000BC089818BBB08C0898188BB05C0898130
:1001D00085BB02C0898182BB0F90DF91CF910895CA
:1001E000CF93DF931F92CDB7DEB719821982898131
:1001F000803208F098C021E030E0898199819770C1
:10020000869586958695813041F138F0823009F4E3
:1002100044C0833009F461C07FC0E981F0E0EE0F93
:10022000FF1FE05AFF4F8081813059F44AB3B90172
:1002300002C0660F771F9A95E2F7CB01842B8ABB29
:100240006BC04AB3B90102C0660F771F9A95E2F7F7
:10025000CB01809584238ABB5FC0E981F0E0EE0F7B
:10026000FF1FE05AFF4F8081813059F447B3B90135
:1002700002C0660F771F9A95E2F7CB01842B87BBEC
:100280004BC047B3B90102C0660F771F9A95E2F7DA
:10029000CB018095842387BB3FC0E981F0E0EE0F5E
:1002A000FF1FE05AFF4F8081813059F444B3B901F8
:1002B00002C0660F771F9A95E2F7CB01842B84BBAF
:1002C0002BC044B3B90102C0660F771F9A95E2F7BD
:1002D000CB018095842384BB1FC0E981F0E0EE0F41
:1002E000FF1FE05AFF4F8081813059F441B3B901BB
:1002F00002C0660F771F9A95E2F7CB01842B81BB72
:100300000BC041B3B90102C0660F771F9A95E2F79F
:10031000CB018095842381BB89818F5F898389810B
:10032000803208F46ACF0F90DF91CF910895CF9378
:10033000DF9300D0CDB7DEB78A838A81807F89833F
:10034000698180E00E94D30060E089E00E94510052
:1003500060E08BE00E9451008FE39FE10197F1F78D
:1003600000C0000061E08BE00E9451008FE39FE13C
:100370000197F1F700C000008A818295807F898310
:10038000698180E00E94D30060E089E00E94510012
:1003900060E08BE00E9451008FE39FE10197F1F74D
:1003A00000C0000061E08BE00E9451008FE39FE1FC
:1003B0000197F1F700C000000F900F90DF91CF91EF
:1003C000089581E00E949701089560E08AE00E940C
:1003D00051002FEF89EF90E0215080409040E1F7ED
:1003E00000C0000083E30E9497018FE39FE1019723
:1003F000F1F700C0000082E30E94970188E20E94AA
:10040000970186E00E9497018CE00E94970181E0AD
:100410000E9497018FE39FE10197F1F700C0000070
:100420000895CF93DF9300D0CDB7DEB78A838A815A
:10043000807F8983698180E00E94D30061E089E048
:100440000E94510060E08BE00E9451008FE39FE129
:100450000197F1F700C0000061E08BE00E945100BD
:100460008FE39FE10197F1F700C000008A81829538
:10047000807F8983698180E00E94D30061E089E008
:100480000E94510060E08BE00E9451008FE39FE1E9
:100490000197F1F700C0000061E08BE00E9451007D
:1004A0008FE39FE10197F1F700C000000F900F90DC
:1004B000DF91CF910895CF93DF93FC012081222318
:1004C00039F0EC0189910E94110288818111FACFE3
:1004D000DF91CF910895CF93DF9300D01F92CDB7D6
:1004E000DEB70E94F0000E94E5010E9441000E94D8
:1004F000E10183E38FBD89E08EBD8FEF92E099BD6E
:1005000088BD81E0898380E18A83CE0101960E94C3
:10051000810300E010E088248A946894992491F87B
:10052000212CAA24AA94BB24B394312CCC24CA94A1
:10053000D12C412C0F2EFAE0EF2EF12CF02D512C66
:100540006894662462F8712C80E00E9446008B83D8
:100550000E94A803863479F40E94E10180EA90E0C9
:100560000E945B0261E083E10E94510060E084E14F
:100570000E945100E9CF823489F40E94E1018CEAA3
:1005800090E00E945B0260E083E10E94510060E025
:1005900084E10E945100062D172DD6CF823569F4D3
:1005A0000E94E10187EB90E00E945B0261E088E13C
:1005B0000E945100062D172DC7CF8C3469F40E947C
:1005C000E1018FEB90E00E945B0260E088E10E9415
:1005D0005100062D172DB8CF8537E1F50F5F1F4F5E
:1005E0000430110558F40130110599F038F002304B
:1005F0001105D1F00330110511F1A6CF0E94E101E0
:1006000088EC90E00E945B0299BC88BC022D10E04F
:100610009BCF0E94E10188ED90E00E945B02B9BC93
:10062000A8BC01E0132D90CF0E94E10188EE90E07C
:100630000E945B02D9BCC8BC02E0142D85CF0E9489
:10064000E10188EF90E00E945B02F9BCE8BC03E0A6
:10065000152D7ACF8436E1F50150110904301105CA
:1006600058F40130110599F038F002301105D1F03D
:100670000330110511F168CF0E94E10188EC90E090
:100680000E945B0299BC88BC022D10E05DCF0E94E5
:10069000E10188ED90E00E945B02B9BCA8BC01E0DA
:1006A000132D52CF0E94E10188EE90E00E945B0280
:1006B000D9BCC8BC02E0142D47CF0E94E10188EFED
:1006C00090E00E945B02F9BCE8BC03E0152D3CCF32
:1006D000823781F40E94E1018B810E949A038B8111
:1006E0000E94AC03823709F02FCF88E091E00E948E
:1006F0005B022ACF863609F027CF8B810E949A03AE
:1007000023CFFC012081222319F0213041F00BC0BE
:10071000BC9ABD9ABF9ABE98C49A6C9A04C0BC9801
:10072000BD98BF98BE9AFC018181803109F4689A16
:100730006E9A0895CF93DF931F92CDB7DEB789836A
:1007400089818FB9779BFECF0F90DF91CF9108956C
:10075000779BFECF8FB10895CF93DF931F92CDB7D4
:10076000DEB7898389818FB9779BFECF8FB10F90D8
:0A077000DF91CF910895F894FFCFB8
:10077A00010101010101010101010101010101015F
:10078A000101010101010101000100010101000152
:10079A00010101010101010101010101010101013F
:1007AA00010101010101010101010101010101012F
:1007BA004D4F544F52205354415254004D4F544FB1
:1007CA00522053544F50004C454431204F4E004C58
:1007DA00454431204F4646004D4F544F5220535006
:1007EA0045454420323525004D4F544F5220535031
:1007FA0045454420353025004D4F544F5220535023
:10080A0045454420373525004D4F544F522053500B
:0E081A00454544203939250053454E54000011
:00000001FF
